{
  "_format": "hh-sol-artifact-1",
  "contractName": "Agent",
  "sourceName": "contracts/Agent.sol",
  "abi": [
    {
      "inputs": [
        {
          "internalType": "string",
          "name": "_name",
          "type": "string"
        },
        {
          "internalType": "uint256",
          "name": "_age",
          "type": "uint256"
        },
        {
          "internalType": "uint256",
          "name": "_designation",
          "type": "uint256"
        },
        {
          "internalType": "string",
          "name": "_hash",
          "type": "string"
        }
      ],
      "name": "add_agent",
      "outputs": [
        {
          "internalType": "string",
          "name": "",
          "type": "string"
        }
      ],
      "stateMutability": "nonpayable",
      "type": "function"
    },
    {
      "inputs": [
        {
          "internalType": "uint256",
          "name": "",
          "type": "uint256"
        }
      ],
      "name": "doctorList",
      "outputs": [
        {
          "internalType": "address",
          "name": "",
          "type": "address"
        }
      ],
      "stateMutability": "view",
      "type": "function"
    },
    {
      "inputs": [
        {
          "internalType": "address",
          "name": "addr",
          "type": "address"
        }
      ],
      "name": "get_accessed_doctorlist_for_patient",
      "outputs": [
        {
          "internalType": "address[]",
          "name": "",
          "type": "address[]"
        }
      ],
      "stateMutability": "view",
      "type": "function"
    },
    {
      "inputs": [
        {
          "internalType": "address",
          "name": "addr",
          "type": "address"
        }
      ],
      "name": "get_accessed_patientlist_for_doctor",
      "outputs": [
        {
          "internalType": "address[]",
          "name": "",
          "type": "address[]"
        }
      ],
      "stateMutability": "view",
      "type": "function"
    },
    {
      "inputs": [
        {
          "internalType": "address",
          "name": "addr",
          "type": "address"
        }
      ],
      "name": "get_doctor",
      "outputs": [
        {
          "internalType": "string",
          "name": "",
          "type": "string"
        },
        {
          "internalType": "uint256",
          "name": "",
          "type": "uint256"
        }
      ],
      "stateMutability": "view",
      "type": "function"
    },
    {
      "inputs": [],
      "name": "get_doctor_list",
      "outputs": [
        {
          "internalType": "address[]",
          "name": "",
          "type": "address[]"
        }
      ],
      "stateMutability": "view",
      "type": "function"
    },
    {
      "inputs": [
        {
          "internalType": "address",
          "name": "paddr",
          "type": "address"
        }
      ],
      "name": "get_hash",
      "outputs": [
        {
          "internalType": "string",
          "name": "",
          "type": "string"
        }
      ],
      "stateMutability": "view",
      "type": "function"
    },
    {
      "inputs": [
        {
          "internalType": "address",
          "name": "addr",
          "type": "address"
        }
      ],
      "name": "get_patient",
      "outputs": [
        {
          "internalType": "string",
          "name": "",
          "type": "string"
        },
        {
          "internalType": "uint256",
          "name": "",
          "type": "uint256"
        },
        {
          "internalType": "uint256[]",
          "name": "",
          "type": "uint256[]"
        },
        {
          "internalType": "address",
          "name": "",
          "type": "address"
        },
        {
          "internalType": "string",
          "name": "",
          "type": "string"
        }
      ],
      "stateMutability": "view",
      "type": "function"
    },
    {
      "inputs": [
        {
          "internalType": "address",
          "name": "paddr",
          "type": "address"
        },
        {
          "internalType": "address",
          "name": "daddr",
          "type": "address"
        }
      ],
      "name": "get_patient_doctor_name",
      "outputs": [
        {
          "internalType": "string",
          "name": "",
          "type": "string"
        },
        {
          "internalType": "string",
          "name": "",
          "type": "string"
        }
      ],
      "stateMutability": "view",
      "type": "function"
    },
    {
      "inputs": [],
      "name": "get_patient_list",
      "outputs": [
        {
          "internalType": "address[]",
          "name": "",
          "type": "address[]"
        }
      ],
      "stateMutability": "view",
      "type": "function"
    },
    {
      "inputs": [
        {
          "internalType": "address",
          "name": "paddr",
          "type": "address"
        },
        {
          "internalType": "uint256",
          "name": "_diagnosis",
          "type": "uint256"
        },
        {
          "internalType": "string",
          "name": "_hash",
          "type": "string"
        }
      ],
      "name": "insurance_claim",
      "outputs": [],
      "stateMutability": "nonpayable",
      "type": "function"
    },
    {
      "inputs": [
        {
          "internalType": "uint256",
          "name": "",
          "type": "uint256"
        }
      ],
      "name": "patientList",
      "outputs": [
        {
          "internalType": "address",
          "name": "",
          "type": "address"
        }
      ],
      "stateMutability": "view",
      "type": "function"
    },
    {
      "inputs": [
        {
          "internalType": "address",
          "name": "addr",
          "type": "address"
        }
      ],
      "name": "permit_access",
      "outputs": [],
      "stateMutability": "payable",
      "type": "function"
    },
    {
      "inputs": [
        {
          "internalType": "address",
          "name": "paddr",
          "type": "address"
        },
        {
          "internalType": "address",
          "name": "daddr",
          "type": "address"
        }
      ],
      "name": "remove_patient",
      "outputs": [],
      "stateMutability": "nonpayable",
      "type": "function"
    },
    {
      "inputs": [
        {
          "internalType": "address",
          "name": "daddr",
          "type": "address"
        }
      ],
      "name": "revoke_access",
      "outputs": [],
      "stateMutability": "payable",
      "type": "function"
    }
  ],
  "bytecode": "0x608060405234801561001057600080fd5b506122f2806100206000396000f3fe6080604052600436106100e75760003560e01c80637e1519ce1161008a578063dd44176b11610059578063dd44176b14610329578063e81ac05414610366578063f02d90a414610391578063f24be9e7146103ce576100e7565b80637e1519ce14610268578063babb1d41146102a5578063bcffb7ca146102e2578063c39e9635146102fe576100e7565b80631e3fc3b8116100c65780631e3fc3b81461018f57806327b1dcee146101cd5780634042d2d4146101e957806356c98c481461022a576100e7565b80627ee3ce146100ec5780630362fe9b14610129578063127ca4b414610152575b600080fd5b3480156100f857600080fd5b50610113600480360381019061010e919061186a565b6103f7565b6040516101209190611955565b60405180910390f35b34801561013557600080fd5b50610150600480360381019061014b9190611977565b6104cd565b005b34801561015e57600080fd5b50610179600480360381019061017491906119ed565b610569565b6040516101869190611a29565b60405180910390f35b34801561019b57600080fd5b506101b660048036038101906101b19190611977565b6105a8565b6040516101c4929190611ad4565b60405180910390f35b6101e760048036038101906101e2919061186a565b610752565b005b3480156101f557600080fd5b50610210600480360381019061020b919061186a565b61075f565b604051610221959493929190611bd8565b60405180910390f35b34801561023657600080fd5b50610251600480360381019061024c919061186a565b610a4f565b60405161025f929190611c40565b60405180910390f35b34801561027457600080fd5b5061028f600480360381019061028a919061186a565b610b6d565b60405161029c9190611c70565b60405180910390f35b3480156102b157600080fd5b506102cc60048036038101906102c791906119ed565b610c41565b6040516102d99190611a29565b60405180910390f35b6102fc60048036038101906102f7919061186a565b610c80565b005b34801561030a57600080fd5b50610313610dc9565b6040516103209190611955565b60405180910390f35b34801561033557600080fd5b50610350600480360381019061034b919061186a565b610e57565b60405161035d9190611955565b60405180910390f35b34801561037257600080fd5b5061037b610f27565b6040516103889190611955565b60405180910390f35b34801561039d57600080fd5b506103b860048036038101906103b39190611dc7565b610fb5565b6040516103c59190611c70565b60405180910390f35b3480156103da57600080fd5b506103f560048036038101906103f09190611e66565b611220565b005b60606000600360008473ffffffffffffffffffffffffffffffffffffffff1673ffffffffffffffffffffffffffffffffffffffff1681526020019081526020016000206002019050808054806020026020016040519081016040528092919081815260200182805480156104c057602002820191906000526020600020905b8160009054906101000a900473ffffffffffffffffffffffffffffffffffffffff1673ffffffffffffffffffffffffffffffffffffffff1681526020019060010190808311610476575b5050505050915050919050565b610518600460008373ffffffffffffffffffffffffffffffffffffffff1673ffffffffffffffffffffffffffffffffffffffff1681526020019081526020016000206002018361143b565b50610564600360008473ffffffffffffffffffffffffffffffffffffffff1673ffffffffffffffffffffffffffffffffffffffff1681526020019081526020016000206002018261143b565b505050565b6002818154811061057957600080fd5b906000526020600020016000915054906101000a900473ffffffffffffffffffffffffffffffffffffffff1681565b606080600360008573ffffffffffffffffffffffffffffffffffffffff1673ffffffffffffffffffffffffffffffffffffffff168152602001908152602001600020600001600460008573ffffffffffffffffffffffffffffffffffffffff1673ffffffffffffffffffffffffffffffffffffffff16815260200190815260200160002060000181805461063b90611f04565b80601f016020809104026020016040519081016040528092919081815260200182805461066790611f04565b80156106b45780601f10610689576101008083540402835291602001916106b4565b820191906000526020600020905b81548152906001019060200180831161069757829003601f168201915b505050505091508080546106c790611f04565b80601f01602080910402602001604051908101604052809291908181526020018280546106f390611f04565b80156107405780601f1061071557610100808354040283529160200191610740565b820191906000526020600020905b81548152906001019060200180831161072357829003601f168201915b50505050509050915091509250929050565b61075c33826104cd565b50565b60606000606060006060600360008773ffffffffffffffffffffffffffffffffffffffff1673ffffffffffffffffffffffffffffffffffffffff168152602001908152602001600020600001600360008873ffffffffffffffffffffffffffffffffffffffff1673ffffffffffffffffffffffffffffffffffffffff16815260200190815260200160002060010154600360008973ffffffffffffffffffffffffffffffffffffffff1673ffffffffffffffffffffffffffffffffffffffff168152602001908152602001600020600301600560008a73ffffffffffffffffffffffffffffffffffffffff1673ffffffffffffffffffffffffffffffffffffffff16815260200190815260200160002060009054906101000a900473ffffffffffffffffffffffffffffffffffffffff16600360008b73ffffffffffffffffffffffffffffffffffffffff1673ffffffffffffffffffffffffffffffffffffffff1681526020019081526020016000206004018480546108de90611f04565b80601f016020809104026020016040519081016040528092919081815260200182805461090a90611f04565b80156109575780601f1061092c57610100808354040283529160200191610957565b820191906000526020600020905b81548152906001019060200180831161093a57829003601f168201915b50505050509450828054806020026020016040519081016040528092919081815260200182805480156109a957602002820191906000526020600020905b815481526020019060010190808311610995575b505050505092508080546109bc90611f04565b80601f01602080910402602001604051908101604052809291908181526020018280546109e890611f04565b8015610a355780601f10610a0a57610100808354040283529160200191610a35565b820191906000526020600020905b815481529060010190602001808311610a1857829003601f168201915b505050505090509450945094509450945091939590929450565b60606000600460008473ffffffffffffffffffffffffffffffffffffffff1673ffffffffffffffffffffffffffffffffffffffff168152602001908152602001600020600001600460008573ffffffffffffffffffffffffffffffffffffffff1673ffffffffffffffffffffffffffffffffffffffff16815260200190815260200160002060010154818054610ae490611f04565b80601f0160208091040260200160405190810160405280929190818152602001828054610b1090611f04565b8015610b5d5780601f10610b3257610100808354040283529160200191610b5d565b820191906000526020600020905b815481529060010190602001808311610b4057829003601f168201915b5050505050915091509150915091565b6060600360008373ffffffffffffffffffffffffffffffffffffffff1673ffffffffffffffffffffffffffffffffffffffff1681526020019081526020016000206004018054610bbc90611f04565b80601f0160208091040260200160405190810160405280929190818152602001828054610be890611f04565b8015610c355780601f10610c0a57610100808354040283529160200191610c35565b820191906000526020600020905b815481529060010190602001808311610c1857829003601f168201915b50505050509050919050565b60018181548110610c5157600080fd5b906000526020600020016000915054906101000a900473ffffffffffffffffffffffffffffffffffffffff1681565b600460008273ffffffffffffffffffffffffffffffffffffffff1673ffffffffffffffffffffffffffffffffffffffff168152602001908152602001600020600201339080600181540180825580915050600190039060005260206000200160009091909190916101000a81548173ffffffffffffffffffffffffffffffffffffffff021916908373ffffffffffffffffffffffffffffffffffffffff160217905550600360003373ffffffffffffffffffffffffffffffffffffffff1673ffffffffffffffffffffffffffffffffffffffff168152602001908152602001600020600201819080600181540180825580915050600190039060005260206000200160009091909190916101000a81548173ffffffffffffffffffffffffffffffffffffffff021916908373ffffffffffffffffffffffffffffffffffffffff16021790555050565b60606002805480602002602001604051908101604052809291908181526020018280548015610e4d57602002820191906000526020600020905b8160009054906101000a900473ffffffffffffffffffffffffffffffffffffffff1673ffffffffffffffffffffffffffffffffffffffff1681526020019060010190808311610e03575b5050505050905090565b6060600460008373ffffffffffffffffffffffffffffffffffffffff1673ffffffffffffffffffffffffffffffffffffffff168152602001908152602001600020600201805480602002602001604051908101604052809291908181526020018280548015610f1b57602002820191906000526020600020905b8160009054906101000a900473ffffffffffffffffffffffffffffffffffffffff1673ffffffffffffffffffffffffffffffffffffffff1681526020019060010190808311610ed1575b50505050509050919050565b60606001805480602002602001604051908101604052809291908181526020018280548015610fab57602002820191906000526020600020905b8160009054906101000a900473ffffffffffffffffffffffffffffffffffffffff1673ffffffffffffffffffffffffffffffffffffffff1681526020019060010190808311610f61575b5050505050905090565b606060003390506000840361110857610fcc6116d5565b8681600001819052508581602001818152505083816080018190525080600360003373ffffffffffffffffffffffffffffffffffffffff1673ffffffffffffffffffffffffffffffffffffffff168152602001908152602001600020600082015181600001908161103d91906120e1565b50602082015181600101556040820151816002019080519060200190611064929190611704565b50606082015181600301908051906020019061108192919061178e565b50608082015181600401908161109791906120e1565b509050506001829080600181540180825580915050600190039060005260206000200160009091909190916101000a81548173ffffffffffffffffffffffffffffffffffffffff021916908373ffffffffffffffffffffffffffffffffffffffff1602179055508692505050611218565b600184036112135785600460008373ffffffffffffffffffffffffffffffffffffffff1673ffffffffffffffffffffffffffffffffffffffff168152602001908152602001600020600001908161115f91906120e1565b5084600460008373ffffffffffffffffffffffffffffffffffffffff1673ffffffffffffffffffffffffffffffffffffffff168152602001908152602001600020600101819055506002819080600181540180825580915050600190039060005260206000200160009091909190916101000a81548173ffffffffffffffffffffffffffffffffffffffff021916908373ffffffffffffffffffffffffffffffffffffffff16021790555085915050611218565b600080fd5b949350505050565b6000805b600460003373ffffffffffffffffffffffffffffffffffffffff1673ffffffffffffffffffffffffffffffffffffffff1681526020019081526020016000206002018054905081101561133a578473ffffffffffffffffffffffffffffffffffffffff16600460003373ffffffffffffffffffffffffffffffffffffffff1673ffffffffffffffffffffffffffffffffffffffff16815260200190815260200160002060020182815481106112dc576112db6121b3565b5b9060005260206000200160009054906101000a900473ffffffffffffffffffffffffffffffffffffffff1673ffffffffffffffffffffffffffffffffffffffff160361132757600191505b808061133290612211565b915050611224565b506001151581151503611360576113518483611681565b61135b84336104cd565b611365565b600080fd5b6000805b600360008773ffffffffffffffffffffffffffffffffffffffff1673ffffffffffffffffffffffffffffffffffffffff168152602001908152602001600020600301805490508110156114335784600360008873ffffffffffffffffffffffffffffffffffffffff1673ffffffffffffffffffffffffffffffffffffffff168152602001908152602001600020600301828154811061140b5761140a6121b3565b5b90600052602060002001540361142057600191505b808061142b90612211565b915050611369565b505050505050565b600080600090506000805b85805490508110156114dd578473ffffffffffffffffffffffffffffffffffffffff1686828154811061147c5761147b6121b3565b5b9060005260206000200160009054906101000a900473ffffffffffffffffffffffffffffffffffffffff1673ffffffffffffffffffffffffffffffffffffffff16036114ca57600192508091505b80806114d590612211565b915050611446565b50816114e857600080fd5b600185805490500361153957848181548110611507576115066121b3565b5b9060005260206000200160006101000a81549073ffffffffffffffffffffffffffffffffffffffff0219169055611633565b846001868054905061154b9190612259565b8154811061155c5761155b6121b3565b5b9060005260206000200160009054906101000a900473ffffffffffffffffffffffffffffffffffffffff1685828154811061159a576115996121b3565b5b9060005260206000200160006101000a81548173ffffffffffffffffffffffffffffffffffffffff021916908373ffffffffffffffffffffffffffffffffffffffff16021790555084600186805490506115f49190612259565b81548110611605576116046121b3565b5b9060005260206000200160006101000a81549073ffffffffffffffffffffffffffffffffffffffff02191690555b848054806116445761164361228d565b5b6001900381819060005260206000200160006101000a81549073ffffffffffffffffffffffffffffffffffffffff02191690559055505092915050565b80600360008473ffffffffffffffffffffffffffffffffffffffff1673ffffffffffffffffffffffffffffffffffffffff16815260200190815260200160002060040190816116d091906120e1565b505050565b6040518060a0016040528060608152602001600081526020016060815260200160608152602001606081525090565b82805482825590600052602060002090810192821561177d579160200282015b8281111561177c5782518260006101000a81548173ffffffffffffffffffffffffffffffffffffffff021916908373ffffffffffffffffffffffffffffffffffffffff16021790555091602001919060010190611724565b5b50905061178a91906117db565b5090565b8280548282559060005260206000209081019282156117ca579160200282015b828111156117c95782518255916020019190600101906117ae565b5b5090506117d791906117db565b5090565b5b808211156117f45760008160009055506001016117dc565b5090565b6000604051905090565b600080fd5b600080fd5b600073ffffffffffffffffffffffffffffffffffffffff82169050919050565b60006118378261180c565b9050919050565b6118478161182c565b811461185257600080fd5b50565b6000813590506118648161183e565b92915050565b6000602082840312156118805761187f611802565b5b600061188e84828501611855565b91505092915050565b600081519050919050565b600082825260208201905092915050565b6000819050602082019050919050565b6118cc8161182c565b82525050565b60006118de83836118c3565b60208301905092915050565b6000602082019050919050565b600061190282611897565b61190c81856118a2565b9350611917836118b3565b8060005b8381101561194857815161192f88826118d2565b975061193a836118ea565b92505060018101905061191b565b5085935050505092915050565b6000602082019050818103600083015261196f81846118f7565b905092915050565b6000806040838503121561198e5761198d611802565b5b600061199c85828601611855565b92505060206119ad85828601611855565b9150509250929050565b6000819050919050565b6119ca816119b7565b81146119d557600080fd5b50565b6000813590506119e7816119c1565b92915050565b600060208284031215611a0357611a02611802565b5b6000611a11848285016119d8565b91505092915050565b611a238161182c565b82525050565b6000602082019050611a3e6000830184611a1a565b92915050565b600081519050919050565b600082825260208201905092915050565b60005b83811015611a7e578082015181840152602081019050611a63565b60008484015250505050565b6000601f19601f8301169050919050565b6000611aa682611a44565b611ab08185611a4f565b9350611ac0818560208601611a60565b611ac981611a8a565b840191505092915050565b60006040820190508181036000830152611aee8185611a9b565b90508181036020830152611b028184611a9b565b90509392505050565b611b14816119b7565b82525050565b600081519050919050565b600082825260208201905092915050565b6000819050602082019050919050565b611b4f816119b7565b82525050565b6000611b618383611b46565b60208301905092915050565b6000602082019050919050565b6000611b8582611b1a565b611b8f8185611b25565b9350611b9a83611b36565b8060005b83811015611bcb578151611bb28882611b55565b9750611bbd83611b6d565b925050600181019050611b9e565b5085935050505092915050565b600060a0820190508181036000830152611bf28188611a9b565b9050611c016020830187611b0b565b8181036040830152611c138186611b7a565b9050611c226060830185611a1a565b8181036080830152611c348184611a9b565b90509695505050505050565b60006040820190508181036000830152611c5a8185611a9b565b9050611c696020830184611b0b565b9392505050565b60006020820190508181036000830152611c8a8184611a9b565b905092915050565b600080fd5b600080fd5b7f4e487b7100000000000000000000000000000000000000000000000000000000600052604160045260246000fd5b611cd482611a8a565b810181811067ffffffffffffffff82111715611cf357611cf2611c9c565b5b80604052505050565b6000611d066117f8565b9050611d128282611ccb565b919050565b600067ffffffffffffffff821115611d3257611d31611c9c565b5b611d3b82611a8a565b9050602081019050919050565b82818337600083830152505050565b6000611d6a611d6584611d17565b611cfc565b905082815260208101848484011115611d8657611d85611c97565b5b611d91848285611d48565b509392505050565b600082601f830112611dae57611dad611c92565b5b8135611dbe848260208601611d57565b91505092915050565b60008060008060808587031215611de157611de0611802565b5b600085013567ffffffffffffffff811115611dff57611dfe611807565b5b611e0b87828801611d99565b9450506020611e1c878288016119d8565b9350506040611e2d878288016119d8565b925050606085013567ffffffffffffffff811115611e4e57611e4d611807565b5b611e5a87828801611d99565b91505092959194509250565b600080600060608486031215611e7f57611e7e611802565b5b6000611e8d86828701611855565b9350506020611e9e868287016119d8565b925050604084013567ffffffffffffffff811115611ebf57611ebe611807565b5b611ecb86828701611d99565b9150509250925092565b7f4e487b7100000000000000000000000000000000000000000000000000000000600052602260045260246000fd5b60006002820490506001821680611f1c57607f821691505b602082108103611f2f57611f2e611ed5565b5b50919050565b60008190508160005260206000209050919050565b60006020601f8301049050919050565b600082821b905092915050565b600060088302611f977fffffffffffffffffffffffffffffffffffffffffffffffffffffffffffffffff82611f5a565b611fa18683611f5a565b95508019841693508086168417925050509392505050565b6000819050919050565b6000611fde611fd9611fd4846119b7565b611fb9565b6119b7565b9050919050565b6000819050919050565b611ff883611fc3565b61200c61200482611fe5565b848454611f67565b825550505050565b600090565b612021612014565b61202c818484611fef565b505050565b5b8181101561205057612045600082612019565b600181019050612032565b5050565b601f8211156120955761206681611f35565b61206f84611f4a565b8101602085101561207e578190505b61209261208a85611f4a565b830182612031565b50505b505050565b600082821c905092915050565b60006120b86000198460080261209a565b1980831691505092915050565b60006120d183836120a7565b9150826002028217905092915050565b6120ea82611a44565b67ffffffffffffffff81111561210357612102611c9c565b5b61210d8254611f04565b612118828285612054565b600060209050601f83116001811461214b5760008415612139578287015190505b61214385826120c5565b8655506121ab565b601f19841661215986611f35565b60005b828110156121815784890151825560018201915060208501945060208101905061215c565b8683101561219e578489015161219a601f8916826120a7565b8355505b6001600288020188555050505b505050505050565b7f4e487b7100000000000000000000000000000000000000000000000000000000600052603260045260246000fd5b7f4e487b7100000000000000000000000000000000000000000000000000000000600052601160045260246000fd5b600061221c826119b7565b91507fffffffffffffffffffffffffffffffffffffffffffffffffffffffffffffffff820361224e5761224d6121e2565b5b600182019050919050565b6000612264826119b7565b915061226f836119b7565b9250828203905081811115612287576122866121e2565b5b92915050565b7f4e487b7100000000000000000000000000000000000000000000000000000000600052603160045260246000fdfea2646970667358221220ee962ae29eb466437463bf85326b768a8fee52144e6a2688775a7706fb3fb33964736f6c63430008120033",
  "linkReferences": {},
  "deployedLinkReferences": {}
}